:020000040800F2
:1000000090100020D5000008F1290008E125000823
:1000100000000000000000000000000000000000E0
:100020000000000000000000000000003331000864
:100030000000000000000000C12D0008353100085C
:10004000E700000800000000E7000008E7000008E3
:10005000E7000008E7000008E70000084D05000879
:1000600000000000E7000008E7000008E7000008C3
:10007000E7000008E7000008E700000800000000B3
:10008000E7000008E7000008E7000008E7000008B4
:10009000E7000008E7000008E7000008E7000008A4
:1000A000E7000008E7000008E7000008E700000894
:1000B000E7000008E70000080000000041420008D7
:1000C0000348854600F054F9004800474D4D0008AC
:1000D000901000200448804704480047FEE7FEE7F0
:1000E000FEE7FEE7FEE7FEE7C9310008C1000008B1
:1000F00030B50B46014600202022012409E00D46C0
:10010000D5409D4205D31D469540491B2546954047
:1001100040191546521E002DF1DC30BD10B5202AC5
:1001200004DB0846203AD040002110BD0B46D340E6
:10013000D0402024A21A91400843194610BD000067
:10014000F0B50C465C4085B0E40FE40703944C0026
:100150000026640859009446490802460296224344
:1001600021D062460A431ED06200570D4A000E039A
:100170002303550D012402462C492405781B1B0B33
:10018000360B401823432643614600901C46501A04
:10019000B44103D30098401C009002E092180098EC
:1001A0005B41002803DA0020014605B0F0BD0020C5
:1001B000012109050746864611E064461D46141BC9
:1001C000B54106D36546521BB341744607430C4301
:1001D000A646CD0740084908284392185B410546CA
:1001E0000D43EAD11046184313D0604619465040DB
:1001F0007140084306D06046101AB34106D201226E
:10020000002306E000220123DB0702E00122D243A3
:100210005310009874460105381C6141029C039DEF
:100220000019694100F044F8BFE70000FD03000039
:100230000EB505490291002100910A460B46019135
:1002400000F043F803B000BD330400004A00090386
:100250000123090B1B051943094B10B5520D9A4296
:1002600001DA002010BD064B34339A4203DC9A1A9F
:10027000FFF754FF10BD03495118884010BD00001E
:10028000FF030000CDFBFFFF10B5002904DB0124B4
:10029000E40740428C412146002B04DB1C4601232D
:1002A000DB075242A3418B4200D1824210BD0000C5
:1002B00010B5002B08DA0024401C614192185B4104
:1002C0001A4301D14008400010BDF0B51FB482B000
:1002D00005460C0003D0084604F0E0F802E004F004
:1002E000DDF82030024600902146284600F052F802
:1002F000049B059A04460F4618431143084314D043
:10030000184610431BD0009840210A1A1846059938
:10031000FFF704FF05460E46009A0599049800F081
:1003200039F8084305D0012004E02046394607B0DB
:10033000F0BD0020C11705430E432C4337430099FD
:100340000E986305401A7905E40A00220C43FD0A61
:100350000A3002D500200146E9E70105101969417C
:100360000C9C0D9D00196941FFF7A2FFDFE700001B
:10037000064C0125064E05E0E36807CC2B430C3CF8
:1003800098471034B442F7D3FFF79EFE645100083B
:100390008451000810B5202A04DB0146203A914020
:1003A000002010BD914020239C1A0346E3401943CE
:1003B000904010BD70B58C180578401C6B075B0F22
:1003C00001D10378401C2A1106D10278401C03E0B9
:1003D00006780E70401C491C5B1EF9D12B0705D412
:1003E0000023521E0DD40B70491CFAE70378401C01
:1003F000CB1A921C03E01D780D70491C5B1C521E29
:10040000F9D5A142D8D3002070BD000070B50A48CC
:1004100000F0BAFB0124094DE403002221462846DE
:1004200000F0ABFA642000F043F90122214628468F
:1004300000F0A3FA70BD0000200200200008004870
:10044000002070470020704710B50022054906487B
:1004500003F0A5F903490448643903F096F9002034
:1004600010BD00002C0C0020A409002010B501468E
:10047000034803F08AF9024803F061F9002010BD37
:10048000A40900200A4610B508498969FF31FF31E7
:1004900002314969002901D0012010BD01460448FC
:1004A00003F07DF9024803F0BFF910BDA40B002052
:1004B000A4090020FEB51546060004D00120C003A3
:1004C00001430C4601E04C04640C01277F03002229
:1004D0003946184800F051FA012004F02DFC694615
:1004E0004C70200A087005230222134801F088FD91
:1004F000052004F021FC002E0BD0052302226946C2
:100500000D4801F0D1FC694608784D78000205439A
:1005100008E069464D70280A087005230222064843
:1005200001F06EFD01223946024800F026FA284605
:10053000FEBD00000004004830020020024A1318EB
:100540005970090A115470473203002010B5012078
:10055000C00300F05DF910BD10B5012400F0B6F83D
:1005600014493420C860144AC868C007FCD1C86860
:10057000C00602D4C868400701D5002414E00B6906
:10058000022003430B614A610A6940231A430A614E
:10059000CA68D207FCD1CA68D206EED4CA6852072C
:1005A000EBD40A6982430A6108698022104308611A
:1005B000204610BD0020024000F80108F8B50746AB
:1005C0000D4621482149012438181646884237D85B
:1005D00000F07CF81E483421C1602AE0012E0FD0C3
:1005E00069782A7809021143AD1CB61EC268D20789
:1005F000FCD1C268D20607D4C268520704D405E011
:10060000297800266D1CF1E7002414E0026901231B
:100610001A4302613980C168C907FCD1C168C906A3
:10062000F2D4C1684907EFD4016949084900016162
:10063000BF1C002ED2D1016980221143016100E06C
:1006400000242046F8BD00000008FEF7FF07000068
:100650000020024010B5064AD9210120FFF72AFFE9
:10066000FFF7E6FD0022034BFFF76AFD10BD000017
:10067000FFFF000000D06D4010B5064ADA210120CE
:10068000FFF718FFFFF7D4FD0022034BFFF758FDDB
:1006900010BD0000FFFF000000D06D4010B5034A00
:1006A00071210120FFF706FF10BD0000FFFF0000D1
:1006B00031B500F069F9009C0546601C00D0641C4F
:1006C00000F062F9401BA042FAD338BD0548016929
:1006D000090605D50449416004494160002070477E
:1006E000012070470020024023016745AB89EFCD10
:1006F000F8B50646032004F01FFB01210920C903B9
:10070000C00600F035F9002878D13D4C0120A070DA
:10071000608C002872D10120C00386426ED1E0892E
:1007200000286BD1208DFF27F537364D364E012836
:1007300030D1208B2421615E88422BDD608B262105
:10074000615E884226DD676300220421284600F0AE
:1007500014F901222021284600F00FF9012100227E
:100760004903304600F009F900220121284600F033
:1007700004F92648E06200226901304600F0FDF8E5
:10078000FF2100220131284600F0F7F802202081E5
:100790000020E063208D022830D1608B2421615E2F
:1007A00088422BDD208B2621615E884226DD67632F
:1007B00001220421284600F0E0F800220121284609
:1007C00000F0DBF801225103304600F0D6F8002299
:1007D0002021284600F0D1F80C48E06201210022D7
:1007E000C903304600F0C9F8FF2100220131284634
:1007F00000F0C3F8022020810020E063F8BD000073
:10080000080000200004004800080048204E0000B6
:1008100010B504494A69024202D04861FFF768FFF7
:1008200010BD000000040140F8B500238DE0012454
:100830009C40A44622407DD04C68022C01D0122C52
:100840000CD1DC08A40027183C6A5D07ED0E0F26CA
:10085000AE40B4430E69AE4026433E6205685E007A
:100860000324B4400F79A543BF07BF0FB7402F4300
:1008700007604D68012D05D0022D03D0112D01D048
:10088000122D0ED18568CF68A543B7402F438760EE
:1008900047686546AF430D79ED06ED0F9D403D433A
:1008A0004560C568A5438C68B4402C43C4604C685F
:1008B000E40049D5284CA56901263543A561A46902
:1008C0009D0834400094254CAD002F19BC689D074D
:1008D0002E0F0F25B540AC430925ED06A84201D1E6
:1008E00000250FE01E4DA84201D101250AE01D4D53
:1008F000A84201D1022505E01B4DA84201D10325E4
:1009000000E00525B5402543BD60184C25684E68BC
:100910009543F60300D51543256065684E689543F9
:10092000B60300D515436560A5684E689543F60289
:1009300002D500E008E01543A560E5684E689543E0
:10094000B60200D51543E5605B1C0A681446DC401E
:1009500000D06CE7F8BD000000100240000001402C
:100960000004004800080048000C00480004014052
:100970000069084000D001207047002A01D0816141
:1009800070478162704700000148006870470000AE
:100990000400002070B5024640325378202B1CD151
:1009A0001378012B19D00123137024245470046888
:1009B00025689D432560046825681E03B5432560AE
:1009C000046825680D4325600068016819430160CB
:1009D000202050700020107070BD022070BD70B5D6
:1009E000024640325378202B1BD11378012B18D0AC
:1009F000012414702423537003681D68A5431D60EF
:100A000005682B680F263602B34309021943296093
:100A100000680168214301602020507000201070A0
:100A200070BD022070BD000070B5040006D02546E0
:100A3000403568780026002802D005E0012070BD0E
:100A40002E70204600F04AF8242068702068016863
:100A50004908490001600F21606809068843216840
:100A6000086121688A680120C00382438A60E168C6
:100A70000129A16808D021229202114322689160C5
:100A8000E168022902D005E00143F7E7012122686D
:100A9000C902516021684A680F4B1A434A602168B5
:100AA000CA688243CA60616920690843A169090272
:100AB00008432168C860216AE0690843216808602A
:100AC000206801680122114301606664202068707B
:100AD0002663AE70002070BD0080000200B5006883
:100AE0000D4987B0884215D1C02000901220012105
:100AF0000190032002910491039069460748FFF793
:100B000093FE0748C269012149050A43C261C069D1
:100B10000840059007B000BD0054004000040048A4
:100B20000010024070B504000FD02168134808601F
:100B300021681348086003CC41602068083C2168A4
:100B40008860FFF721FF054608E0012070BDFFF730
:100B50001BFF401B272801D9032070BD2068C068F7
:100B60000028F4D120680269E1688A4201D001615D
:100B700001E004490160002070BD0000CCCC000001
:100B800055550000AAAA0000006802490160002033
:100B900070470000AAAA000002480168491C0160D1
:100BA000704700000400002010B5064801681022BC
:100BB00011430160002000F007F800F017F8002052
:100BC00010BD00000020024010B5044600F0F4FE05
:100BD0007D21C900FFF78CFA01F0B2FC002221460A
:100BE000501E00F029F8002010BD000008B50C4888
:100BF00081690122114381618069104000220090C7
:100C00001146501F00F018F800221146901E00F007
:100C100013F800221146501E00F00EF808BD000027
:100C200000100240C106C90E012088400149086039
:100C30007047000000E100E010B501F0DBFE10BDE0
:100C400010B50C0606D54906490E1C246143081848
:100C5000283004E01C2461430818FF30093099B2A1
:100C6000002A06D001228272C180190C0181002065
:100C700010BD002282728180F9E71C224A431218BB
:100C800010B5FF30FF300230926BC06902F079FF7F
:100C900010BD1C224A43121810B5FF30FF32FF303E
:100CA000013202309269C06902F0C6FF10BD000037
:100CB000F0B54A06520E13461C256A43CC09121899
:100CC000002C01D0283201E0FF32093204461370B3
:100CD000C909FF345170E134217A01293DD0012145
:100CE0002172957A494B002D4949557837D0002D0E
:100CF00005681678AC465BD0B600AD5B6F0404D5D2
:100D0000444F0D403D436746BD5305681678AC46D9
:100D1000B600AD5B6F0605D53C4F0D4040373D43F7
:100D20006746BD5315780668AF00F55B0D4039493D
:100D30000D43F553364F117830373D400668890032
:100D40001D4375521178334A00688900F13A154005
:100D50001D43455200202072F0BD0220F0BD002D41
:100D600005681678AC4610D0B600AD5B6F0605D5A9
:100D70000D40264940310D4361468D53056810787A
:100D8000234A8100685A30320EE0B600AD5B6F0432
:100D900004D50D401F490D4361468D5305681078F9
:100DA0001C4A8100685AF13A104018436852D1E752
:100DB000B600AD5B6F0404D5164F0D403D4367464A
:100DC000BD5305681678AC46B600AD5B6F0605D519
:100DD0000E4F0D4040373D436746BD5315780768B9
:100DE000AE00BD5B0D40094940310D43BD53094F75
:100DF0001678F13F3D400168B6001D438D531178D0
:100E0000034A890000683032A1E7000080800000BA
:100E10008F8F000080C00000F0B54B06CA095B0E42
:100E2000002A04D01C225A431218283204E01C2243
:100E30004A431218FF32093200249470137003469B
:100E4000C909FF335170E133197A01291AD0012100
:100E5000197251781A4C00291178066814D08D0047
:100E6000715B4F0603D52140164C21437153117815
:100E700000688A00124C815A3034214010246140AD
:100E8000202414E00220F0BD8D00715B4F0403D5D7
:100E900021400D4C21437153117800688A000A4C9F
:100EA000815AF13C214001242403614064006140E7
:100EB000044C403C2143815200201872F0BD0000D8
:100EC0008F8F0000C080000080C000004906490EDE
:100ED0001C2251430818FF300130008C80B270474B
:100EE000F0B54D066D0E2E461C246543CF092C1817
:100EF000002F01D0283401E0FF3409342670C909DD
:100F000061700146FF31E260E131E3708C46097A9D
:100F100001290DD0012261460A72E2789349002A24
:100F200008D0012A20D0022A0DD0032A25D111E0B1
:100F30000220F0BD237802689B00D55A0D40FF3592
:100F4000FF35023504E0237802689B00D55A0D4036
:100F5000D55212E02278036892009D5A0D40032179
:100F600049026918995208E0237802689B00D55A13
:100F70000D40012189026918D15226780768B50011
:100F80007B5B7B497B4A0B40134333437B53A57AFE
:100F9000002D53D02578784E0B400768AD003343C1
:100FA0007B53E38850265D0803686D00F65AF618F7
:100FB0002378DF0001239B02FB18F552238950267A
:100FC0005D0803686D00F65AF6182378DF005311A8
:100FD000FB18F55263780768002B237875D09D00C5
:100FE0007B5B5E0403D5654E0B4033437B53237814
:100FF00007689D007B5B5E0604D55E4E0B40403665
:1010000033437B53237805689E00AB5B0B405B4901
:101010000B43AB53564E2178303633400568890078
:1010200013436B522178554C00688900F13C2340F2
:1010300013434352002061460872F0BD6378002BD1
:10104000A3881FD05D0803685026F65A6D00F61875
:101050002378DF0001239B02FB18F55223780768F1
:101060009D007B5B5E0604D50B40424940310B433B
:101070007B53016820783E4C8300C85A30342040AE
:10108000202440E05D0803685026F65A6D00F618EB
:101090002378DF003A4BFB18F55203685025ED5AD0
:1010A000374EEB182578B61CED00AD195E19E368D4
:1010B0003E2B0BD9DD022D0CDB0601D16D1EADB22E
:1010C000AB020125ED032B4307E020E0DD032D0CEF
:1010D000DB0701D06D1CADB2AB023380237807680B
:1010E0009D007B5B5E0403D50B4024490B437B537F
:1010F00001682078214C8300C85AF13C204001242B
:1011000024036040640060401043C85292E79D0091
:101110007B5B5E0403D5194E0B4033437B5323782E
:1011200007689D007B5B5E0604D5124E0B4040367F
:1011300033437B53237805689E00AB5B0B400D491E
:1011400040310B43AB530D4E2178F13E3340012625
:1011500036037340760073400568890013436B5271
:101160002178034C89000068303460E78F890000E3
:101170008F8F0000808000008081000080C0000010
:1011800004040000F0B54906490E1C244C43241801
:10119000FF340934636122610022A2610346627058
:1011A000FF332170E133197A012908D00121197226
:1011B0006569E1688D4204D96D1A656103E002201A
:1011C000F0BD29466261A57A002D05D06578002D15
:1011D00019D0012D37D059E005685026765B761975
:1011E0002578EF00324D7D1976193E293ED9CD0282
:1011F0002D0CC90637D0A9020125ED03294300E0D3
:10120000A902318042E005685026765B7619257880
:10121000EF00274D2D1F7D1976193E290AD9CD02E1
:101220002D0CCF0601D16D1EADB2AD020127FF031B
:101230003D4306E0CD032D0CCF0701D06D1CADB2B0
:10124000AD02358009E005685026765B7619257871
:10125000EF00174D2D1F7D1971536578002DBBD000
:10126000012D0AD012E06D1EADB2C4E7CD032D0CE6
:10127000C907C5D06D1CADB2C2E705685026765BC4
:1012800076192578EF000A4D7D1971532178006891
:101290008C00015B074D294001252D0369406D003D
:1012A0006940054D294301531A720020F0BD00002A
:1012B000060400008FBF000080800000F0B50246E9
:1012C000FF32E132137A012B0BD001244F06CB09F8
:1012D0007F0E1472002B06D01C237B431B1828336F
:1012E00006E00220F0BD1C234B431B18FF330933DB
:1012F0009C701F70CE095E70012424031025114BD1
:10130000002F0BD04906C90D002E10D004680E4ED8
:10131000605A304068401843605210E001680B4E3C
:1013200008883040604068401843088007E005683E
:10133000064E685A303E30406040184368520020E4
:101340001072F0BD80800000BF8F0000BFBF0000A2
:10135000F0B506464806400E1C2141438D19EB634B
:101360000021AA6329640121283537466970FF37B7
:101370002870E137387A012806D03972EC6868693C
:10138000A04203D9001B03E00220F0BD0446002068
:101390006861A87A00280CD0297830688A00825CBD
:1013A00052066A783AD54B4B002A13D0012A2DD029
:1013B00032E0A3B2AA882969306801F0EEFC3068F7
:1013C0005021095A09182878C2004248001F1018F5
:1013D0000C526CE05022125AC9001018C91841185A
:1013E0003E2C0AD9E002000CE20601D1401E80B278
:1013F00080020122D203104306E0E003000CE20762
:1014000001D0401C80B28002088005E05022125AB0
:10141000C9001018C91844522A892BE0002A02D0AA
:10142000012A1ED025E05022125AC900121829485C
:10143000001F081811183E2C0AD9E002000CE20621
:1014400001D1401E80B280020122D203104306E087
:10145000E003000CE20701D0401C80B2800208804B
:1014600007E05022125A1018CA001A49091F5118D1
:101470004452EA88A3B22969306801F08EFC697889
:101480001548002902D0012909D010E029783268D6
:101490008900535A034011480343535207E0297807
:1014A000336889005A5A02400D4802435A5228783C
:1014B00031688200084B885A303318401023584056
:1014C00020235840054B403B184388520020387277
:1014D000F0BD0000060400008F8F0000C0800000F7
:1014E00080C0000070B50446006840308088C00BA2
:1014F00002D0204601F0A0FA2068403081884905DA
:101500000AD58188334A11408180204600F0DAF8FC
:101510000021204600F000F920684030818849040D
:1015200003D581882C4A1140818020684030818811
:10153000890403D58188294A114081802068403080
:1015400081880425C904002910DA0188A943018093
:10155000BD202168000240310880204600F0BEF81E
:101560002068403081881E4A1140818020684030C8
:101570008188090517D581881A4A11408180206821
:1015800040300188082211430180206840300188E2
:1015900029430180206840308088C043C00402D5C0
:1015A000204600F0E3F8206840308188890506D5A0
:1015B00081880D4A11408180204600F0A5F82068FE
:1015C00040308188C90503D58188084A114081804F
:1015D00070BD0000FFFB0000FFBF0000FFDF000048
:1015E000FFEF0000FFF70000FFFD0000FFFE00001E
:1015F000F8B500270446002807D02646FF36E13616
:10160000707A0025002802D005E00120F8BD35726F
:10161000204600F03BF80320707201210BE01C20F3
:10162000784302191046203041720772C572556323
:1016300095637F1CD5636068B842F0D800200BE04A
:101640001C2242431219FF32013255721072D572B8
:1016500055619561401CD56162688242F0D820686E
:10166000403001802068403005802068403085800F
:10167000206840300582BF2022680002403210807E
:101680002034257171720020F8BD000008B5006893
:101690000A49884210D10A48C2690121C9050A4392
:1016A000C261C06900220840009011461F20FFF768
:1016B000C3FA1F20FFF7B6FA08BD0000005C004027
:1016C0000010024010B5C41DFF34FA340121E06956
:1016D00002F0B7FBE06902F07CFB10BD10B50446D8
:1016E0008069002806D007480169062291430161FC
:1016F00001F026FDFF34FF340234E06902F08CFB78
:1017000010BD000000ED00E0FF3010B5FF300230EA
:10171000C06902F087FB10BD0246FF32E132137A46
:10172000012B08D001231372002906D0203001714B
:1017300000201072704702207047006880214030FE
:101740008181F5E710B5872189000A580146FF31EC
:10175000ED31104602F08BFB10BD00684030018B6C
:101760000122D203114301830020704710B50446C3
:10177000FF30FF300230C06902F0CEFBA0690028C4
:1017800004D00348016906221143016110BD000025
:1017900000ED00E0F8B505460068394CC00352D5AD
:1017A000E0690026C00007D4E16920040143E1613B
:1017B000E16901400126009132480168C90510D451
:1017C0000168821511430160FFF7DEF8074604E067
:1017D000FFF7DAF8C01B642824D82A480068C0053F
:1017E000F6D5206A03273F02384020D06968394087
:1017F00081421CD0206A226AB843012109040A43AD
:101800002262226A8A4322622062C0070FD0FFF759
:10181000BBF8009008E0FFF7B7F80099411A1A48A2
:10182000814201D90320F8BD206A8007F3D5206AE0
:101830006968B84308432062002E04D0E1690120A2
:1018400000078143E1612878C00705D0206BA968B3
:1018500080088000084320632878800605D5206B27
:1018600010218843E968084320632868800305D570
:10187000206B802188432969084320630020F8BD3C
:10188000001002400070004088130000F8B50546C3
:1018900044480E460068C007C00FB0420AD2414813
:1018A000016849084900314301600068C007C00F62
:1018B000B0425CD128783C4C800705D56068F021A7
:1018C0008843A968084360602878C0073FD06868EB
:1018D000012813D02168022813D08907002946DA8D
:1018E00061688908890001436160FFF74DF8696804
:1018F000074601290DD0022917D024E02168890369
:10190000ECE78901EAE7FFF73FF8C11B274881426E
:1019100017D860680007800F0128F4D117E0FFF79F
:1019200033F8C11B214881420BD860680007800F43
:101930000228F4D10BE0FFF727F8C11B1B488142B6
:1019400001D90320F8BD60680007800FF3D1154866
:101950000168C907C90FB1420BD90168490849009C
:10196000314301600068C007C00FB04201D00120C0
:10197000F8BD2878400706D560680721090288432A
:10198000E9680843606000F01DF86168084A0906CC
:10199000090F515CC840074908600020FFF714F99F
:1019A0000020F8BD00200240001002408813000013
:1019B00054510008000000200148006870470000F2
:1019C0000000002010B511A30FCB88B06C460FC4E7
:1019D00012A30FCB0FC415494A680C2013460340CD
:1019E0001348042B0FD0082B0DD193021B0F6C460C
:1019F000E45CC96A04AB0907090FD203595C920F72
:101A0000FEF776FB604308B010BD0000020304053A
:101A1000060708090A0B0C0D0E0F10100102030433
:101A200005060708090A0B0C0D0E0F1000100240E6
:101A300000127A00FEB504460078D24DC00749D0A6
:101A400068680007800F012820D068680007800FB1
:101A5000022804D16868C003800F022816D0012034
:101A600062680004012A18D08100002A01D0052AEA
:101A700017D02A6882432A602868884328606068F3
:101A800000281BD0FEF780FF064613E0286880037D
:101A900020D56068002876D01CE0296801432960C1
:101AA000EDE72A680A432A60F7E7FEF76DFF801B1F
:101AB000642869D828688003F7D50BE0FEF764FF37
:101AC000064604E0FEF760FF801B6428F1D8286812
:101AD0008003F7D420780126800700283DDA686863
:101AE0000007800F13D068680007800F022804D118
:101AF0006868C003800F012809D0E06800282868C2
:101B00001CD030432860FEF73FFF07460BE02868F3
:101B100080070BD5E068012835D107E0FEF734FFD8
:101B2000C01B0228C5D828688007F7D52868F82187
:101B300088432169C900084328600EE0400840003E
:101B40002860FEF721FF074604E0FEF71DFFC01BDB
:101B50000228AED828688007F7D42078000723D55C
:101B6000E0690028686A10D030436862FEF70CFF15
:101B7000074604E0FEF708FFC01B022899D8686AF0
:101B80008007F7D510E0FAE0A4E040084000686262
:101B9000FEF7FAFE074604E0FEF7F6FEC01B022839
:101BA00087D8686A8007F7D4207804274007002880
:101BB00060DA00200190E869C00008D4E969B8063D
:101BC0000143E961E96901400120009101906E48FB
:101BD0000168C90511D40168821511430160FEF73F
:101BE000D3FE009005E0FEF7CFFE0099401A64286E
:101BF00070D865480068C005F5D5A06801280AD0EE
:101C0000002801D0052810D0286A4008400028622A
:101C1000286AB84301E0286A30432862A068002897
:101C200012D0FEF7B1FE00900AE0286A384328621D
:101C3000F1E7FEF7A9FE0099411A5448814249D8BC
:101C4000286A8007F5D50DE0FEF79EFE009006E0BD
:101C5000FEF79AFE0099411A4C4881423AD8286A08
:101C60008007F5D40198002804D0E9690120000715
:101C70008143E9612078C00635D5606901280CD020
:101C8000401D686B23D038436863686B4008400090
:101C90006863FEF779FE064622E0686B38436863A6
:101CA000686B30436863FEF76FFE064604E0FEF79C
:101CB0006BFE801B02285BD8686B8007F7D5686BCA
:101CC000F8218843A169C900084368630BE0B84361
:101CD0006863F4E74CE0FEF757FE801B022847D804
:101CE000686B8007F7D4206A002846D06968090726
:101CF000890F022943D0012636060228286805D01C
:101D0000B0432860FEF740FE044633E0B04328604D
:101D1000FEF73AFE074604E0FEF736FEC01B022837
:101D200026D828688001F7D4E86AE16A0009000132
:101D30000843E862616AA06A084369687B22D203AB
:101D4000914308436860286830432860FEF71CFE12
:101D5000044604E0FEF718FE001B022808D8286895
:101D60008001F7D509E0FEF70FFE001B022801D91C
:101D70000320FEBD28688001F5D40020FEBD0120AF
:101D8000FEBD0000001002400070004088130000FB
:101D9000F8B5040007D0002625464035A662687FC6
:101DA000002802D005E00120F8BD2E77204600F083
:101DB0004BF802236B772068016840229143016051
:101DC0000721E0680902884201D9002201E00122CE
:101DD00012030F273F02B84202D0884200D0A66209
:101DE000276B002F05D1884201D9236301E0012030
:101DF0002063A16860686369084321691943084347
:101E00000123A1695B0219400843E1690843216A83
:101E10000843A16A084321680860616B606AA3698E
:101E200008431B0C0427E1683B4019430843216821
:101E3000104348602068C1697A029143C1612666F7
:101E4000012068770020F8BDF0B50068134987B01D
:101E5000884220D11248C26909140A43C261C0698C
:101E6000104F08400590081100900520022500241D
:101E70000326049003960195029469463846FEF7BE
:101E8000D3FCB00300900294694603960195049434
:101E90003846FEF7C9FC07B0F0BD0000003800402E
:101EA0000010024000040048FFB504460E4640689A
:101EB000FF21254600270531403581B0884202D1F7
:101EC000A06800280CD0287F012815D00120287791
:101ED000FEF75AFD0090687F01280FD0022789E0A5
:101EE0000420687704980090324611462046039BF0
:101EF00000F03EF905B0F0BD0220FBE7002E78D0DF
:101F00000398002875D00420687700202066266496
:101F10000399A9800399E980A063A087E087E06422
:101F2000206507200121E26800020903824222683D
:101F3000536801D98B4300E00B4353600122A16831
:101F4000D203914205D121680A6801239B039A4379
:101F50000A6021680A68520603D40A6840231A43BB
:101F60000A60E168814218D934E020688168C907B5
:101F700006D0007B3070E888401EE880761C0CE0BC
:101F80000498002824D0401C07D0FEF7FDFC014631
:101F90000098091A049881421AD2E8880028E4D1EE
:101FA0001BE020688168C90706D0C0683080E888D7
:101FB000401EE880B61C0DE00498002808D0401CA4
:101FC00008D0FEF7E1FC0099411A0498814201D340
:101FD00003270FE0E8880028E3D12046009A0499FF
:101FE00000F0B4FF002801D020202066206E0028D9
:101FF00000D001270120687700202877384679E74C
:10200000FFB5064604464036307F002781B00D46B6
:10201000012809D001203077FEF7B6FC0090707FD0
:10202000012804D002279DE0022005B0F0BD002D5C
:1020300072D0039800286FD00320707700202066AC
:10204000A5630399A1870399E1872064B080F0809C
:102050002065E0640121A068C903884205D1206899
:10206000016801229203114301602068016849065A
:1020700003D401684022114301600720E168000297
:102080008142606823D9002802D0E08F01281AD14C
:1020900021682888C86005E020688168890706D51E
:1020A0002988C160E08F401EE087AD1C0BE00498DA
:1020B00000283ED0401C06D0FEF766FC0099411A6D
:1020C0000498814235D2E08F0028E5D136E000281F
:1020D00002D0E08F01282ED1E08F012803D921689A
:1020E0002888C8600CE02168287808730FE0206811
:1020F0008168890711D5E18F012906D92988C16036
:10210000E08F801EE087AD1C15E029780173E08F19
:10211000401EE0876D1C0EE023E00498002808D0E4
:10212000401C08D0FEF730FC0099411A0498814207
:1021300001D3032716E0E08F0028D8D12046009A6B
:10214000049900F03FFF002801D020202066A068FD
:10215000002803D12068C16880680090206E0028A4
:1021600000D00127012070770020307738465CE7E7
:10217000FFB5044683B00120254640350090287FF6
:1021800000270E4601280FD001202877FEF7FCFB20
:102190000190687F616801280DD0CA1FFD3A08D1FF
:1021A000A168002905D102E0022007B0F0BD042893
:1021B00001D00227FAE0002E7CD005980028FBD041
:1021C00006980028F8D0687F042801D00520687799
:1021D00000202066059921640699E9800699A98066
:1021E000A6630699E1870699A187E0642065072325
:1021F000E1681B02994202D8E888012806D92068C4
:102200004268012109038A43426005E02068416871
:10221000012212031143416020680168490603D47A
:102220000168402211430160E1686068994242D927
:10223000002802D0E08F012835D121683088C8609D
:10224000E08F401EE087B61C2DE0009800280ED0DD
:10225000E08F00280BD020688168890707D5318876
:10226000C160E08F401EE0870020B61C0090E88827
:1022700000280ED020688168C9070AD0C068059977
:1022800008800598801C0590E888401EE8800120A1
:1022900000900C98401C06D0FEF776FB0199411A7D
:1022A0000C9881426DD2E08F0028CED1E8880028BA
:1022B000CBD16EE079E0002802D0E08F012862D116
:1022C000E08F012807D921683088C860E08F801E20
:1022D000E087B61C57E0216830780873E08F401E15
:1022E000E087761C4FE00098002818D0E08F002887
:1022F00015D020688168890711D5E18F012906D999
:102300003188C160E08F801EE087B61C05E031781F
:102310000173E08F401EE087761C00200090E88863
:10232000002824D020688168C90720D0E9880129C5
:1023300012D9C068059908800598801C0590E88826
:10234000801EE880E88801280FD8206841680122B3
:1023500012031143416008E0017B05980170059864
:10236000401C0590E888401EE880012000900C98F1
:10237000401C08D0FEF708FB0199401A0C998842CE
:1023800001D3032712E0E08F0028ACD1E8880028B1
:10239000A9D12046019A0C9900F014FE002801D022
:1023A00020202066206E002800D0012701206877B9
:1023B000002028773846F8E60422044904280869F2
:1023C00002D09043086170471043FBE700E000E053
:1023D000F8B5574C0025208A401C80B22082642822
:1023E00002D3258201202070E089002806D0E089F0
:1023F000401E00B2E081002800DCE581606B00280F
:1024000005D0606B401E6063002800DC6563607966
:10241000401C6071E08B002803D0E08B401EE083FD
:1024200008E0E580E078002804D0E57000F0C2FF05
:1024300000F040FFE06A3F4E002803D0E06A401EF3
:10244000E06204E0012211463046FEF796FAE06BA6
:1024500000286BD0A089FF27F53700283CD0A08941
:10246000401E00B2A081002836D1A581208D012810
:1024700022D0012204213046FEF77FFA01225103C7
:102480002D48FEF77AFA002220213046FEF775FA31
:10249000FF21002201313046FEF76FFA6763022008
:1024A0002081002201213046FEF767FA2348E062CE
:1024B000608900280FD00FE0002204213046FEF78B
:1024C0005CFA012220213046FEF757FA0022012152
:1024D00049031948DAE7E5636089002826D0608956
:1024E000401E00B26081002820D16581208D012826
:1024F00015D0002204213046FEF73FFA6763002220
:1025000001213046FEF739FA0C48E0620122D1037E
:102510000948FEF732FA2089032802D002E001229E
:10252000E8E72581A089002800D1E563F8BD000017
:10253000080000200004004800080048204E000069
:10254000094910B5401E884201D9012010BD074C31
:1025500060610321081F00F04DFA0020A0610720F0
:102560002061002010BD0000FFFFFF0000E000E040
:1025700010B5FFF72DFF10BD70B5040005D025463E
:102580002035687F002802D006E0012070BD0020C1
:102590002877204600F00AF802206877211D20687D
:1025A00000F044FE01206877002070BD08B5094A9C
:1025B00001680948914202D1C269102104E0074A2A
:1025C000914206D1C26920210A43C261C069084014
:1025D000009008BD001000400010024000140040B0
:1025E000FEE7000070B50021764A0846FDF762FF5D
:1025F000754A70210020FDF75DFF744A0821002014
:10260000FDF758FF724C302122460020FDF752FFA3
:10261000B92231210020FDF74DFF6E4A3221002002
:10262000FDF748FF872233210020FDF743FF6A4A68
:1026300034210020FDF73EFF684A35210020FDF7D8
:1026400039FF674A36210020FDF734FF654A3B21F8
:102650000020FDF72FFF00223B210120FDF72AFF7C
:10266000224640210020FDF725FF5F4D47212A46E5
:102670000020FDF71FFF002248211046FDF71AFF3A
:102680002A4649210020FDF715FF00224A21104665
:10269000FDF710FF2A464B210020FDF70BFF00221B
:1026A0004C211046FDF706FF002241211046FDF7A0
:1026B00001FF002242211046FDF7FCFE00224321CB
:1026C0001046FDF7F7FE002244211046FDF7F2FE0A
:1026D000002245211046FDF7EDFE0022462110465E
:1026E000FDF7E8FE414A4D210020FDF7E3FE002200
:1026F0004D210120FDF7DEFE224660210020FDF77E
:10270000D9FE3B4C612122460020FDF7D3FE394D16
:1027100062212A460020FDF7CDFE002263211046EB
:10272000FDF7C8FE002264211046FDF7C3FE2246D5
:1027300065210020FDF7BEFE2A4666210020FDF738
:10274000B9FE002267211046FDF7B4FE0022682181
:102750001046FDF7AFFE224669210020FDF7AAFED4
:102760002A466A210020FDF7A5FE00226B211046B3
:10277000FDF7A0FE00226C211046FDF79BFE1E4ACD
:102780006F210020FDF796FE00226F210120FDF74A
:1027900091FE1A4C302122460020FDF78BFE224686
:1027A00040210020FDF786FE224660210020FDF733
:1027B00081FE0122520276210020FDF77BFEFDF70B
:1027C0006DFF70BDFFFF00009A7800002F1F000012
:1027D00078560000F3C1000055550000BD08000008
:1027E000EC0A0000595F0000391D000002240000BF
:1027F000E9D80000C91B000094A60000658700000E
:10280000F0B53F4887B042690121C9040A434261DB
:1028100042690A4005924269C9000A43426142691D
:102820000A400592426949110A43426142690A40DD
:102830000592426949000A43426140690724084001
:10284000304E64030590002221463046FEF795F88D
:1028500009200022FC21C006FEF78FF82B4F002232
:1028600029493846FEF789F800940024012501958E
:102870000294694630460394FDF7D6FFFC20009091
:1028800009200294694601950394C006FDF7CCFF28
:102890001F48009011200190029469460394384625
:1028A000FDF7C2FF1B48009002946946019503940E
:1028B0003846FDF7B9FF28036A4631C269463846F3
:1028C000FDF7B2FF072000026A4631C209206946BF
:1028D000C006FDF7A9FFE80300900F48019009200A
:1028E00069460294C006FDF79FFF002211460720AB
:1028F000FEF7A2F90720FEF795F907B0F0BD00003A
:1029000000100240000800483F2B0000000400486F
:10291000030A00003C2100000000211010B51248FD
:1029200010490160114941600021816001614161EC
:1029300081610122C161C2600162FEF775F8002861
:1029400000D0FEE700210848FEF724F8002800D058
:10295000FEE700210448FEF742F8002800D0FEE719
:1029600010BD000000540040D40100200E090020DA
:1029700010B511480F490160FF2105314160002168
:102980000722816012020161C2600122416152028C
:102990008261016228224162C26181620722C262B1
:1029A000016308214163FFF7F3F9002800D0FEE737
:1029B00010BD0000003800403002002010B5002299
:1029C0000749084801F09EF80749064801F0D3FA84
:1029D0000649044800F0CFFE024801F01DFB10BD7F
:1029E00078000020A40900209C010020AC000020F9
:1029F000704700008307FF22DB0E9A408907090E0B
:102A0000994000280BDA0007000F083883080848AF
:102A10009B001818C36993430B43C3617047830835
:102A200004489B001B1818689043084318607047BF
:102A300000ED00E000E400E0F0B585B004460020C1
:102A4000694688802646203678E19A8917073F0F25
:102A500026D0B9000291425A9A80998809047DD5FE
:102A6000BE490A400299425238461C214843051982
:102A7000FF350935A87A0028206870D029788A00A7
:102A8000825A52046CD55022125ACB00B449121803
:102A90005918515A8905890D00917DD0EA88BDE009
:102AA0009A89D20627D40188AE4A25461140018072
:102AB00020685021095A283508182978CA00A849E1
:102AC0005118405A8005800D2064A16B0818A0633E
:102AD00000212046FEF7D1F830790028B4D068698B
:102AE0000028B1D1307980210843216840318881A4
:102AF0000020307122E12546FF35028809359A8091
:102B00009B881B0519D5098A09182878C2009448A2
:102B1000001D1018085A294683059B0DAB61AA8831
:102B2000E431206800F024F920688C4A01881140C3
:102B300001802046FEF706FE00E169468988090407
:102B4000D8D58649864F0A40028020685021095A0C
:102B50003F1D09182878C000C01902E085E03DE05B
:102B60004FE0085A83059B0DAB6108D0AA882969FC
:102B7000206800F0FDF8A969286940182861002143
:102B80002046FEF786F8206801464030008A40184B
:102B9000C119E8683E2800E044E00AD9C202120CDC
:102BA000C00601D1521E92B290020122D2031043FC
:102BB00006E0C203120CC00701D0521C92B2900270
:102BC00008802168684A088810400122120350409A
:102BD00052005040654A10430880AFE05021095A26
:102BE0000A182978CB005E49091D5918515A8905E0
:102BF000890D009121D0AA882969009B00F0B8F8BE
:102C00001BE05022CB00125A55491218091D5918C1
:102C1000515A8905890D009104D02A892969009BA0
:102C200000F0A6F8297820688A004E4B815A80333C
:102C300019404E4B403319438152A9690098081836
:102C4000A861296900980A182A616B69002B03D0D2
:102C5000E9680098814204D929782046FEF719F8DE
:102C600003E029782046FEF78DFA68468088000642
:102C700064D51C204743206802993A4A415A3D19BD
:102C80001140029A28358152A87A0028206811D074
:102C900029788A00825C52061ED55022125AC90039
:102CA00012182F480818105A83059B0DAB6124D0C9
:102CB000EA881EE05021095A09182878C2002848DD
:102CC0001018085A83059B0DAB6121D0AA88296989
:102CD000206800F062F81BE05022125AC900121856
:102CE0001F48001D0818105A83059B0DAB6104D0C6
:102CF0002A892969206800F050F828782268800025
:102D0000184B115A80331940174BF13319431152A4
:102D100020685021095A09182878C2001048101854
:102D2000085A8005800DA86129690A182A616B6913
:102D30002978002B20460DD0FEF70AFB20680146BB
:102D400040318A886B469A81120400D57DE60020C6
:102D500005B0F0BDFDF791FFF0E700008F0F000018
:102D6000020400000F8F00008FBF00008080000071
:102D7000101810B5012292025C088018002C07D0B0
:102D800002880A70120A4A70801C891C641EF7D1DE
:102D9000DA0701D00078087010BD101801225B1C02
:102DA000920210B55B088018002B08D04A780C7886
:102DB000120222430280801C891C5B1EF6D110BDCA
:102DC00070470000F8B55948594C0178A184A18C8E
:102DD0000902A1844178A28C1143A1848178E18405
:102DE000E18C0902E184C178E28C1143E18401792C
:102DF0006184618C090261844179628C1143618430
:102E000081792184218C09022184C179228C11438A
:102E10002184017A2185218D09022185407A218D25
:102E2000084320852421615E4B20C000814203DCE1
:102E30002421615E642901DAC821A1842621615E12
:102E4000814203DC2620205E642801DAD220E0845F
:102E50002221615E05203C2903DC2221615E0029DC
:102E600000DA60842021615E3C2903DC2021615E60
:102E7000002900DA20842820205E022803DC282094
:102E8000205E012801DA01202085208D294D0128AE
:102E90000BD0002204212846FDF76FFD208D01266E
:102EA000F603254F012802D01EE00122F2E7262179
:102EB000608A615E884208DD20A201210A2000F0BC
:102EC00057FB0122042128460CE01EA201210A2002
:102ED00000F04EFB002204212846FDF74EFD0022A3
:102EE00031463846FDF749FD208D02281CD12621A8
:102EF000A08A615E884208DD10A201210A2000F04C
:102F000037FB0022042128460CE00EA201210A20F2
:102F100000F02EFB012204212846FDF72EFD0022A1
:102F200031463846FDF729FDF8BD000000F80108DC
:102F30000800002000040048000800484E4F524D91
:102F4000414C00004259504153530000F7B504462C
:102F50004068FF26053682B01546B0420CD10121EB
:102F6000A068C903884202D04911884204D1206870
:102F70000168402291430160009500228021204693
:102F8000039B00F090F82027002813D16068B0421E
:102F900016D1A068B902884202D0491188420FD1E7
:102FA00003210095002249022046039B00F030F8DF
:102FB000002805D0206E38432066032005B0F0BD00
:102FC0000020FBE7F8B50F460B461546009203219B
:102FD00004460022C90200F01BF82026002812D166
:102FE0003B46002280212046009500F05CF8002836
:102FF00009D103213B46002249022046009500F0FA
:1030000007F8002803D0206E304320660320F8BD67
:10301000F8B51D4617460E4604463DE00321490219
:103020008E4205D1002F03D1017B684601700078E4
:10303000681C31D0002D05D0FDF7A6FC0699401A7A
:10304000A84229D320684168E0229143416060682A
:10305000C11FFD390CD10121A068C903884202D0EB
:103060004911884204D120680168402291430160DF
:103070000120A16A4003814207D121680A68824386
:103080000A6021680A6802430A60012040346077C0
:10309000002020770320F8BD206881683140B942C4
:1030A000BCD10020F8BDF8B51D4617460E460446B3
:1030B00033E0681C31D0002D05D0FDF765FC069982
:1030C000401AA84229D320684168E0229143416018
:1030D0006068C11FFD390CD10121A068C903884275
:1030E00002D04911884204D12068016840229143EE
:1030F00001600120A16A4003814207D121680A686A
:1031000082430A6021680A6802430A600120403451
:103110006077002020770320F8BD20688168304662
:10312000884304D00020B842C3D10020F8BD01205C
:10313000F9E7704710B5FDF72FFDFFF719FA10BD3D
:1031400030B595B00B200090012001900390102124
:1031500007900491000409900001022500240A90C0
:1031600008950B946846FEF765FC002800D0FEE742
:1031700007200C900E9401210D950F940CA8FEF7DA
:1031800085FB002800D0FEE70E48109080201490A8
:10319000139410A8FEF7FEFA002800D0FEE7FEF711
:1031A0000BFC7D21C900FCF7A3FFFFF7C9F9042040
:1031B000FFF702F900221146501EFDF73DFD15B044
:1031C00030BD0000200002001548016801221143B3
:1031D00001604168134A114041600168124A114080
:1031E00001600168012292049143016041683F221D
:1031F000120491434160C16A09090901C162016B6E
:10320000FF22943291430163016B802211430163D9
:10321000416B49084900416300218160704700000B
:10322000001002400CB8FF08FFFFF6FEF0B5026880
:103230001A4B1B4C984201D0A04203D17025AA43DF
:103240004D682A43174D184E184F98420AD0A04295
:1032500008D0174CA04205D0A84203D0B04201D0FC
:10326000B84205D11446032212029443CA6822438D
:103270008024A2434C69224302608A68C2620A68C1
:103280008262984205D0A84203D0B04201D0B84231
:1032900001D10969016301214161F0BD002C0140A8
:1032A000000400400040014000440140004801404B
:1032B0000020004010B5054908784008400008701B
:1032C0000821084300F01CF810BD00005400002045
:1032D00010B50549012208781043087008210843F9
:1032E00000F00EF810BD00005400002010B50120C1
:1032F00000F006F8014801F01FFD10BDAC0D000004
:1033000010B50446092000224021C006FDF735FB18
:10331000012001F011FD200900F006F82007000F40
:1033200000F002F810BD000070B50821204D0446E1
:10333000084201D0012200E0002220212846FDF7AA
:103340001CFB04210C4201D0012200E000221021CC
:103350002846FDF712FB02210C4201D0012200E0B9
:10336000002208212846FDF708FBE007C00F01D026
:10337000012200E0002204212846FDF7FEFA002287
:1033800080212846FDF7F9FA042001F0D5FC01223E
:1033900080212846FDF7F1FA042001F0CDFC00223F
:1033A00080212846FDF7E9FA322001F0C5FC70BD06
:1033B0000000004810B50549FD220878104008704B
:1033C00008210843FFF79CFF10BD000054000020B7
:1033D00010B50549022208781043087008210843F7
:1033E000FFF78EFF10BD00005400002008B509A2B1
:1033F00012680092084AD3788B4200D8002150719D
:1034000091716A46515C081880210843C0B2FFF7E9
:1034100077FF08BD004014545400002010B5044646
:10342000092001224021C006FDF7A7FA012001F082
:1034300083FC2009FFF778FF2007000FFFF774FFD8
:1034400010BD000010B5054904220878104308702B
:1034500008210843FFF754FF10BD0000540000206E
:1034600070B509240D460646E40600224021204698
:10347000FDF783FA002280212046FDF77EFA002224
:1034800004212046FDF779FA002208212046FDF7A5
:1034900074FA002210212046FDF76FFA0022202145
:1034A0002046FDF76AFA2F4801F046FC2E4C00201A
:1034B000E57026716071A0716070012D01D908203E
:1034C00060700320FFF730FF284D284601F034FCE0
:1034D0000320FFF729FF284601F02EFC0320FFF709
:1034E00023FF284601F028FC0220FFF71DFFC8201B
:1034F00001F022FC2820FFF717FFC82001F01CFC78
:103500000220FFF711FFC82001F016FC0220FFF790
:103510000BFFC82001F010FC0220FFF705FFC820B8
:1035200001F00AFC0220FFF7FFFEC82001F004FCB6
:103530000220FFF7F9FEC82001F0FEFB6078202191
:103540000843FFF7DDFE04202070FFF77BFFFFF745
:10355000CDFE0220A0700620FFF7D2FE284601F023
:10356000EBFB70BD50C30000540000206419000044
:1035700070B51546FFF73AFF134C16E060792179D4
:10358000884207D300206071A179491CC9B2A1719A
:10359000FFF72CFF28780A280BD00D280FD0FFF753
:1035A0003DFF6079401C60716D1C28780028E5D1D2
:1035B00070BDA079401CC1B2A171607901E0A17910
:1035C0000020FFF713FFEFE754000020FF30FF302B
:1035D00002308069002806D0FF300021FF30023021
:1035E0004161084670470220704770B5C21DFF3226
:1035F000FA321546946900F059FBE11DFF31FA31AA
:10360000C860A869002808D04868E969CA688321A9
:10361000890061189047002070BD022070BD70B510
:1036200004460025812100F099FA0121204600F08E
:1036300095FA8221204600F091FAFF34FF340234DB
:10364000A069002807D0E06940688047A06900F0C1
:10365000F1FD0020A061284670BDFF3010B5FF309D
:103660001A300AC8002B0AD0CC1DFF34FA34207857
:10367000FF2804D09B6862789847FF2020700020C4
:1036800010BD00000A21018000487047C4000020DE
:10369000432101800048704714010020432101802C
:1036A00000487047D0000020432101800048704747
:1036B00058010020F8B50446007C0126002576025A
:1036C000002830D0402302228121204600F058FB00
:1036D000402302220121204600F052FB082303224E
:1036E0008221204600F04CFB8720800000F0A4FDE2
:1036F000E11DFF31FA31886100281CD00746C869F6
:1037000000688047FF370020FF3702377861B861D3
:10371000207C7A68002810D040230121204600F048
:1037200045FB2846F8BD334602228121204600F0A1
:1037300027FB3346CDE70125F3E73346EDE710B528
:103740004321C9000958002913D0027C002A09D05E
:10375000FF31FF3102314A684023012100F026FB8E
:10376000002010BDFF31FF31023101235B024A68A6
:10377000F3E7022010BD02460220002904D0FF32E8
:10378000FF3202320020D1617047FF30FF3002303B
:103790008069FF30FF300230416000207047FF3009
:1037A000FF3002308069FF30FF30023002618160FB
:1037B0000020704770B50C46C11D0546FF31FA3137
:1037C000207860228E69024022D0202A28D1E28807
:1037D000002A16D0000607D5C96960788B68314683
:1037E0009847E288314618E0F01DFF306178FA30E2
:1037F0000170A1794170E2883146284600F050F806
:103800000EE0C96960788B6800222146984707E07E
:1038100060780A2804D103490122284600F05CF8A8
:10382000002070BDC000002010B54321C900095818
:10383000002911D0FF31FF3102314A69002A01D03D
:10384000012010BD01224A610A8A93B28A6881214F
:1038500000F06AFB002010BD022010BD10B58522CB
:103860009200125852689047002010BD134610B5C0
:103870000A46002100F09AFA002010BD134610B548
:103880000A46002100F050FB002010BD10B5044690
:10389000802100F01BFB0021204600F017FB10BD2B
:1038A00010B5FF230324F5331C50C31DF9339A6070
:1038B000DA6013460A46002100F078FA002010BDB5
:1038C00010B5FF210522F5310A5000231A4619468A
:1038D00000F06CFA002010BD10B5FF230224F53370
:1038E0001C5082611346C2610A46002100F01CFB95
:1038F000002010BD10B5FF210422F5310A5000232D
:103900001A46194600F010FB002010BD10B50A46FB
:10391000024903A000F0D4F8004810BD6403002061
:1039200043444320436F6E6669670000122008809D
:10393000004870479800002010B50A46024903A0CD
:1039400000F0BEF8004810BD64030020434443204B
:10395000496E74657266616365000000042008802A
:10396000004870479400002010B50A46024903A0A1
:1039700000F0A6F8004810BD6403002053544D69C0
:1039800063726F656C656374726F6E696373000058
:1039900010B50A46024903A000F092F8004810BD95
:1039A0006403002053544D3332205669727475619C
:1039B0006C20436F6D506F727400000010B50A46A2
:1039C000024903A000F07CF8004810BD6403002009
:1039D0003030303030303030303031410000000095
:1039E000F8B50D4604464988FF300A0AFF30023018
:1039F000130000F06AFD084905091649493E464989
:103A00000069237C02682AE0217C022640690029A3
:103A100005D0C16A684688470146467040E0816A21
:103A2000F8E7C9B20B0000F050FD0604080F1317A9
:103A30001E2F0069227C436802E00069227C8368B3
:103A400069461046984712E00069227CC368F7E790
:103A50000069227C0369F3E70069237C42696946B7
:103A60001846904703E00069227C8369E8E7014635
:103A700016E0217C002907D14069416B68468847E0
:103A8000F5E7217C002904D029462046FFF7FEFEF9
:103A9000F8BD4069016B68468847072201464270BD
:103AA000684600880028F3D0EA88002AF0D08242D5
:103AB00000D90246684602802046FFF70DFFF8BD98
:103AC00070B5002300281CD00446002502E06D1CC0
:103AD000EDB2641C2678002EF9D16C00A41C148071
:103AE000CC5403225B1CCA5400245B1C06E0CA545D
:103AF0005B1CDAB28C54521CD3B2401C0278002AF0
:103B0000F5D170BD10B5002813D0C31DFF33FA33B3
:103B10005C69002C01D000245C61002900D019618F
:103B2000FF210123FD310B54027000F0C7F8002083
:103B300010BD022010BD10B5FF30FF300230002450
:103B4000006AFDF769F9002806D0012801D0022893
:103B500001D0022400E00124204610BD10B5FF3042
:103B6000FF3002300024006AFDF7A2F8002806D0DA
:103B7000012801D0022801D0022400E001242046BF
:103B800010BDFEB50446FF30E51DE130FF35FA35C6
:103B900013460190002908D068694269002A49D07B
:103BA0000198007F032843D044E02646FF36813643
:103BB0002046716F1430022934D1C26881680092A6
:103BC000914207D9891A81608AB219462046FFF7C7
:103BD00055FE13E0406811460746FCF789FA0029B4
:103BE00013D10098874210D3B06F87420DD20022C4
:103BF00011462046FFF742FE0020B06700231A4618
:103C00001946204600F0D2F80CE06869C168002926
:103C100005D00198007F032801D12046884720461F
:103C2000FFF74EFE2878012804D10020287001E01B
:103C3000204690470020FEBD70B50546FF35E135B2
:103C40002B46203316460446002907D0586982695E
:103C5000002A29D0287F032824D025E0FF21F53130
:103C6000E01D0959FD3003291ED18268C1688A42CE
:103C70000BD9511A8160C068814200D301468AB2D3
:103C800031462046FFF7F2FD0EE058690169002930
:103C900004D0287F032801D1204688472046FFF71B
:103CA00029FE01E020469047002070BDFF3010B58E
:103CB000FF300230006AFDF709F910BD10B51F4949
:103CC000C41DC861FF341E49FA341E4821620860D1
:103CD000022208208A6048600020C8608861C861AC
:103CE0000A6108620846FDF783FC002804D0FF2122
:103CF000253115A000F0BCFB002218231146206AD4
:103D0000FCF79EFF582300228021206AFCF798FFD1
:103D1000C02300228121206AFCF792FFFF23113388
:103D200000220121206AFCF78BFFFF2301330022D0
:103D30008221206AFCF784FF002010BD8409002046
:103D400084070020005C00402E2E2F5372632F75D5
:103D50007362645F636F6E662E630000FF30CA0992
:103D6000FF3049060230490E1C23006A59430818E7
:103D7000002A01D0203001E0FF300130807A704706
:103D800070B5FF301D46FF30023013460024006A34
:103D90002A46FDF7A5F8002806D0012801D0022800
:103DA00001D0022400E00124204670BD10B5FF3090
:103DB000FF3002300024006AFDF7E4F9002806D045
:103DC000012801D0022801D0022400E0012420466D
:103DD00010BD70B50022044640231146FFF7D0FF06
:103DE0004025FF20113005512B460022802120461E
:103DF000FFF7C6FFFF200121FD3025620155E01DC0
:103E0000FF30FA308169002904D040692179426885
:103E100020469047002070BDFF30E130417F0177A0
:103E20000020704710B5FF21FD31095C032906D140
:103E3000852189000958C969002900D088470020D8
:103E400010BD01740020704710B5FF30FF30023004
:103E50000024006AFDF760FC002806D0012801D08C
:103E6000022801D0022400E00124204610BD70B5D4
:103E700004464120C0002018054600F068F821469D
:103E8000FF3181310122084680304A67C2898A6742
:103E9000007AC106C90E0AD001290DD0022910D01E
:103EA000C109C901204600F011F8002070BD294663
:103EB000204600F0B6F8F8E72946204600F09DF9C4
:103EC000F3E72946204600F023F9EEE710B5FF306E
:103ED000FF3002300024006AFDF7F0F9002806D018
:103EE000012801D0022801D0022400E0012420464C
:103EF00010BD10B5FF30FF3002300024006AFDF71E
:103F00002CFC002806D0012801D0022801D0022470
:103F100000E00124204610BDFF30E130017F4177F1
:103F2000042101770020704710B5FF30FF300230C8
:103F30000024006AFDF70CFA002806D0012801D001
:103F4000022801D0022400E00124204610BD0A7896
:103F500002704A784270CB788A781B02D21842806D
:103F60004B790A791B02D21882808A79C9790902B1
:103F70005118C180704702460020002904D0FF324A
:103F8000FF320232516170470220704710B585221E
:103F9000920012580224002A04D012689047002888
:103FA00000D10024204610BD70B50E468978194D09
:103FB00004462970012904D931462046FFF766FCE2
:103FC00070BD2046FF30E130027F022A15D0032A5F
:103FD000F2D1002917D0606888420AD0C1B22046C9
:103FE000FFF73CFC297861602046FFF7CFFF0228ED
:103FF000E2D02046FFF77EFC70BD0029F9D00322F5
:1040000061600277F0E70222027720466160FFF7E5
:1040100025FCEEE7BC00002010B5FFF76AFF00208A
:1040200010BDF8B500220092C61DFF364C78174629
:10403000FA3632460125203A230000F046FA0A3CBF
:10404000564150410906412B2841FFF7C9FC5DE06C
:1040500004468888002818D1C888002815D1887897
:1040600017464606107F760E03280ED0BE773146DF
:104070002046FFF7E9FE2046FFF73CFC002E02D069
:104080000220387742E03D7740E0204618E0FFF715
:104090008BFF3BE0CB88012B12D1127F022A02D08A
:1040A000032A0DD104E0012201460831876013E0A4
:1040B0000122011D10E0127F022A04D0032A02D03F
:1040C000FFF7E4FB22E0C5607168002901D00321FD
:1040D000C160014602220C31FFF7FEFB16E00446E8
:1040E0004888012812D1756009E00446107F022833
:1040F00001D00328C9D14888012807D177607069A9
:104100008268204690472046FFF7F4FB0098F8BDF0
:10411000F8B504460D462878E61D4006FF36002710
:104120000979800FFA36012809D06A78304620389C
:10413000002A38D0012A1ED0032A3DD106E070693A
:1041400029468268204690470020F8BD007F02285B
:1041500017D003282CD16888002806D1002904D064
:10416000802902D02046FFF7B1FE70692946826897
:104170002046904713E0007F022802D0032817D181
:1041800004E0002918D080291AD115E06888002899
:1041900012D1480603D02046FFF7CDFCE5E72046C4
:1041A000FFF7A8FB08E0007F022807D003280BD008
:1041B00029462046FFF76AFB3846F8BD4806FBD083
:1041C0002046FFF783FEF7E7C80904D04806400DF4
:1041D0000519143504E04806400D0519FF3505356D
:1041E0002046FFF7BBFD002800D0012028600222F6
:1041F00029462046FFF770FBDEE770B50446FF3026
:10420000E130007F0D4603280FD1287901280CD812
:10421000852080000059826820469047E888002861
:1042200006D12046FFF766FB02E02046FFF72EFB93
:10423000002070BD704700000048704764050020F2
:1042400010B50248FDF74EF910BD000084070020AC
:10425000F8B5814D814CFCF7FDF9E165A065FCF7EF
:10426000F9F9E165A065FCF707FA61662066FCF7DD
:1042700003FA616620667A4A74210020FCF71AF975
:1042800000222B46E16DA06DFBF7FEFF02D200205D
:10429000A065E06500222B46616E206EFBF7F4FFFF
:1042A00002D2002020666066E16DA06DFBF7CEFFB4
:1042B0002083616E206EFBF7C9FF6083E16EA06E04
:1042C000FBF7C4FF80B2E082312801D13220E082C6
:1042D000208D012810D0608BA083E08900287AD13E
:1042E000A08B2421615EFF26F5360025884274DC10
:1042F0002089002802D070E0208BEDE7608C7D21C2
:10430000C9004843A08101202081A189002906D04D
:10431000A189891FA181217900295DD05DE0208DCF
:10432000504F012828D1608B2621615E884223DD11
:104330006663002204214C48FCF71FFB0022012188
:104340004948FCF71AFB012220214748FCF715FBDE
:104350000121002249033846FCF70FFB4348E06285
:1043600001210022C9033846FCF707FBFF21002288
:1043700001313D48FCF701FB208D022827D1208B1D
:104380002621615E884222DD6663012204213648CF
:10439000FCF7F3FA002201213348FCF7EEFA012280
:1043A00051033846FCF7E9FA002220212E48FCF799
:1043B000E4FA2E48E06201210022C9033846FCF7E6
:1043C000DCFAFF21002201312748FCF7D6FA02204F
:1043D0002081E56301E03DE0E063A08B2421615E84
:1043E000884205DB2089012802D1A5812581E5636A
:1043F000A08B2621615E884220DB208902281DD106
:10440000208C7D21C9004843608103202081608980
:10441000002806D06089C01F6081207900280BD059
:104420000CE06663012204210F48FCF7A6FA2089FC
:10443000032803D1258101E00120E063A08B262120
:10444000615E884206DC2089032803D10220208196
:104450006581E563F8BD00000000494008000020C8
:10446000FFFF00000008004800040048204E000044
:10447000FEE700000FB410B504A9074B02AA039889
:1044800000F040F8044602A9002000F0E3F82046BE
:1044900010BC08BC04B01847554600082021020C87
:1044A00001D010211046020A01D010460839020935
:1044B00001D01046091F820801D01046891E42080B
:1044C00001D0881E7047081A704730B47446641EC5
:1044D0002578641CAB4200D21D46635D5B00E31887
:1044E00030BC184702E008C8121F08C1002AFAD1E0
:1044F00070477047002001E001C1121F002AFBD164
:1045000070470000FFB58DB00446002506E0252861
:104510000AD0109A0F999047641C6D1C20780028CF
:10452000F5D1284611B0F0BD00270121484A009777
:1045300000E00743641C23780846203B9840104263
:10454000F7D120782E2817D1042007436078641C07
:104550002A280CD10E98641C02C800910E900BE022
:1045600000990A22514330394018641C0090207889
:10457000014630390929F3D920780028D1D06428A0
:1045800008D0692806D075281ED0109A0F99904738
:104590006D1C5BE00A200E99019001C90E91002864
:1045A00002DA40422D2102E0390504D52B216A466A
:1045B0001172012103E0F90704D02021F7E70BAEC7
:1045C0000B910DE00021FAE70A200E99019001C934
:1045D0000E91F7E70199FBF78BFD3031761E3170B4
:1045E0000028F7D103A8801B20300190780701D55F
:1045F000009801E0012000900199884201DD401AF5
:1046000000E000200027009006E002A8109AC05D9C
:104610000F9990476D1C7F1C0B988742F5DB04E0D7
:10462000109A30200F9990476D1C0099481E0090F9
:104630000029F5DC05E03078109A761C0F99904738
:104640006D1C0199481E01900029F4DC641C65E78B
:10465000092801000A68531C0B60107070470000A5
:10466000F0B501270926BF02F60687B03946304665
:10467000FCF77EF90024FA4D002814D0B91030461A
:10468000FCF776F900280ED079103046FCF770F967
:10469000002808D0B900F348FCF76AF9002802D0D6
:1046A0002C6407B0F0BD39463046FCF761F90028AC
:1046B00014D0FF2101313046FCF75AF900280DD003
:1046C000012149023046FCF753F9002806D00121A8
:1046D0000903E448FCF74CF9002802D1286C0028B3
:1046E00020D0012109208902C006FCF741F9DE4EE5
:1046F00000281BD00927FF21FF0601313846FCF7AF
:1047000037F9002812D0012149023846FCF730F968
:1047100000280BD001210903D248FCF729F9002811
:1047200004D054E201202864D04876E2286C0128A5
:10473000F7D1686C00287DD100220121C948FCF71F
:104740001CF9CB48E862FBF761FE0927FF21FF0651
:1047500001313846FCF70CF9002806D10121490245
:104760003846FCF705F9002808D001210920890204
:10477000C006FCF7FDF800280AD095E002211020C1
:10478000FEF76EFEFEF7B2FD1420FBF791FF88E7FF
:10479000FEF7ACFDEC63E888401C00B2E880052819
:1047A00003DDEC8001202870AC63E88800280FD07E
:1047B000E888012871D0E888022850D0E8880328CA
:1047C00055D0E888042859D0E88805285DD064E0F1
:1047D000E878002861D0EC70288D81B20820FBF7C2
:1047E000ADFEFBF7B9FE1022A249A348FBF7E6FE97
:1047F000288D012831D0002204219A48FCF7BDF809
:10480000FEF774FDFEF7D6FDFEF754FD00219BA2D6
:104810000846FEF7ADFE9DA201210020FEF7A8FE8E
:1048200000273A469DA103A8FFF724FE01219CA280
:104830000C2000E0F0E1FEF79BFE03AA01210C2012
:10484000FEF796FE1420FBF733FF9648FCF79CF921
:104850007F1CFFB2642FE4D91FE00122CCE7EE8376
:10486000E878002819D0A88C81B2002013E0E878FD
:10487000002812D0E88C81B202200CE0E8780028F1
:104880000BD0688C81B2042005E0E878002804D0C1
:10489000288C81B20620FBF751FEEE837448E86253
:1048A0008148686402202864FF2109200131C00684
:1048B000FCF75EF8032700284DD1E87801284AD19B
:1048C0000620285E0300FFF700FE06420416212C96
:1048D0003742A88CA98C80B2491CA9842421695E26
:1048E000DC2906DC2422AA5E2621695E491F8A4251
:1048F0002DDDA8842BE0E88CE98C80B2491CE9848A
:104900002621695EDC2922DDE88420E0688C698C40
:1049100080B2491C69842221695E3C2917DD6884C4
:1049200015E0288C298C80B2491C29842021695EDD
:104930003C290CDD28840AE02820285E288D401CB4
:1049400028852820285E022801DD012028852F6483
:10495000EE834748E862012109204902C006FCF7BE
:1049600007F800284DD1E87801284AD10620285EB2
:104970000300FFF7AAFD0642040F212C3742A88C42
:10498000A98C80B2491EA9842421695E962934DA53
:10499000A88432E0E88CE98C80B2491EE9842621A3
:1049A000695E962906DB2622AA5E2421695E491DDE
:1049B0008A4222DAE88420E0688C698C80B2491E41
:1049C00069842221695E002917DA688415E0288C41
:1049D000298C80B2491E29842021695E00290CDAC5
:1049E00028840AE02820285E288D401E288528205B
:1049F000285E012801DA022028852F64EE831C48F6
:104A0000E862012109031748FBF7B2FF002811D122
:104A1000EE83FEF7CFFCFEF74DFC142000F08CF97E
:104A2000E878002802D0EC70FEF7CCF9EC80012089
:104A30002870AC630620285E0300FFF746FD06C819
:104A400004496887ADC8002118A20846FEF790FD0A
:104A50001BA201210020FEF78BFD2422AA5E43E069
:104A6000080000200004004830750000204E0000BF
:104A700050C300003203002000F80108537973741A
:104A8000656D20536176696E67000000506C65614A
:104A9000736520576169743A0000000025640000C6
:104AA0002020200020020020F04902002020204D7C
:104AB000454E555B312F355D202020200000000041
:104AC000566F6C7420556E6465723A2000000000C9
:104AD000002170A20846FEF74BFD73A201210020C1
:104AE000FEF746FD2622AA5E73A16846FFF7C2FCC8
:104AF0007248734AC47001210C20FEF739FD6A46E2
:104B000001210C20FEF734FD01210E205DE0002183
:104B10006CA20846FEF72CFD6FA201210020FEF7D3
:104B200027FD2222AA5E64A16846FFF7A3FC634822
:104B3000634A847001210C20FEF71AFD6A460121A8
:104B40000C20FEF715FD2220285E1DE0002166A244
:104B50000846FEF70DFD69A201210020FEF708FDC1
:104B60002022AA5E54A16846FFF784FC5348544AA9
:104B7000847001210C20FEF7FBFC6A4601210C2009
:104B8000FEF7F6FC2020285E0A2802DA01210C201C
:104B90001BE001210D2018E000215CA20846FEF771
:104BA000E7FC5FA201210020FEF7E2FC2822AA5EBA
:104BB00041A16846FFF75EFC40486A464470012107
:104BC0000F20FEF7D5FC01210F20FEF70FFC09276F
:104BD0000121FF0689023846FBF7CAFE002815D0DE
:104BE000FF2101313846FBF7C3FE00280ED001211A
:104BF00049023846FBF7BCFE002807D00121090313
:104C00004B48FBF7B5FE002800D04AE5286C022887
:104C1000FBD1686C002802D0401E686441E5E8784A
:104C2000002801D11420A8640120E870E880FEF774
:104C30005DFB234A00210C320846FEF799FC204A0E
:104C4000012120320020FEF793FC2422AA5E1AA143
:104C50006846FFF70FFC19486A46C47001210C2012
:104C6000FEF786FC01210E20FEF7C0FBFEF7B0FB2D
:104C7000FEF72EFB00241E20FBF71AFD0F48F43828
:104C8000FBF782FF641CE4B20A2CF4D3EE832948BC
:104C9000E86206E52020204D454E555B322F355DFC
:104CA0002020202000000000566F6C7420556E5F9D
:104CB00052653A2000000000256400001403002023
:104CC000A04A00082020204D454E555B332F355D0E
:104CD000202020200000000054696D6520556E647E
:104CE00065723A20000000002020204D454E555BA3
:104CF000342F355D202020200000000054696D65B0
:104D000020556E5F52653A20000000002020204DA3
:104D1000454E555B352F355D2020202000000000DA
:104D2000536F757263652053656C6563743A560002
:104D30000004004850C3000008B54100401800902E
:104D4000411E009101D30846FAE708BD86B0FBF783
:104D50002BFFFEF7F5F9FDF753FDFDF72FFEDC48BD
:104D6000DA4901600025091585604160D9498561EE
:104D7000C160FDF701FC002800D0FEE7D448D64909
:104D800040300160102185604160D4498561C16077
:104D9000FDF7F2FB002800D0FEE7FDF7E9FDFDF787
:104DA000BDFDCB48CE497438016004214160CD4936
:104DB000C1608160FBF7B6FE002800D0FEE70A2044
:104DC000FBF776FCFDF70EFC0A20FBF771FCFDF704
:104DD00009FCFDF7F7FF0122D103C348FBF7CDFD26
:104DE000C24F0121002249023846FBF7C6FDC04CE4
:104DF000218D0920C00602260129BE490AD0FBF7F1
:104E0000B7FD00280ED0002204213846FBF7B5FD7F
:104E100025810DE0FBF7ACFD002801D00122F3E76E
:104E2000002200E0012204213846FBF7A6FD26817E
:104E300002211020FEF714FBFEF758FA0021AEA263
:104E40000846FEF795FBB1A201210020FEF790FB7A
:104E500000263246B1A16846FFF70CFBB0A2012143
:104E60000C20FEF785FB6A4601210C20FEF780FB33
:104E70001420FBF71DFC96487438FBF785FE761C62
:104E8000F6B2642EE5D9002201219848FBF775FDA2
:104E9000A448E0620120A0638D4EA34F80368C4869
:104EA0007438FBF771FE206B401C2063206BB84206
:104EB00000DB2563207800287ED0E08800287BD1A5
:104EC0002570A06B401CA063012876DB606B002876
:104ED00073D1A5636078401CC0B260700F2804D302
:104EE0006570208B6082608BA0827948628A8BA17A
:104EF0008030FFF7BFFA608A642803D95620F0702B
:104F0000202010E001460B39592903D25620B070F9
:104F1000202007E00A2808D2307870705620B07040
:104F200020203070F070307175716948A28A7BA1C1
:104F30008F30FFF79FFAA08A642805D9644856216C
:104F40008F30C170202114E001460B39592905D258
:104F50005F4856218F308170202109E00A280AD24B
:104F60005B488F300178417056218170202101709B
:104F7000C17001714571A078002807D0A5706B49F8
:104F80004120087001216948FBF77CFA002168A2E2
:104F90000846FEF7EDFA4E4A012180320020FEF766
:104FA000E7FA4B4A01218F320520FEF7E1FA208D06
:104FB00001281ED1208901E085E082E0002818D177
:104FC0002621608A615E884213DD5EA201210A20EB
:104FD000FEF7CEFA002220214448FBF7CEFC012246
:104FE00051034148FBF7C9FC012211023F48FBF77E
:104FF000C4FC208D02281CD12089002819D126212B
:10500000A08A615E884214DD4EA201210A20FEF7CB
:10501000AFFA012220213548FBF7AFFC0121002225
:1050200049033148FBF7A9FC012211022F48FBF785
:10503000A4FC2421608A615E884211DC01220821DF
:105040002A48FBF79AFC208D012809D10122202152
:105050002648FBF792FC3DA201210A20FEF788FAC0
:105060002421A08A615E884211DC012210211F48A0
:10507000FBF783FC208D022809D1010301221A4885
:10508000FBF77BFC31A201210A20FEF771FA2620F2
:10509000618A205E814204DD002208211348FBF76B
:1050A0006CFC2621A08A615E884204DD002210216A
:1050B0000E48FBF762FC0121002289030A48FBF736
:1050C0005CFCFFF7C5F8FFF7CBFAE8E600100040FC
:1050D000940200201AB7000000140040DB05000015
:1050E00000300040FF0F00000008004800040048A6
:1050F0000800002000800000415453204259204500
:105100005350544543484E4F00000000506C6561B9
:10511000736520576169743A00000000256400003F
:105120002020200060EA000021AA4400C80B0020D3
:1051300020563120202056322020535441545553BC
:10514000000000004E4F524D414C0000425950416A
:10515000535300000000000000000000010203049F
:10516000060708098451000800000020D40100004F
:10517000B403000848520008D4010020BC0E00000F
:10518000F4440008110313127A031C8813034260CD
:10519000EA132D391B085D041A69041A91041ABD1B
:1051A000041A0D041A390417040309041201140225
:1051B00002021640830440572602010203011349EC
:1051C000041B0845041A41041A6D0481130A0632AF
:1051D000021A4023111C0902432F1125C032090471
:1051E0001B01020B130524161001052401100901EF
:1051F00004240202052406170107058203081C1077
:10520000090465320A1D07050102432C07058107C1
:105210000938442A40072A8107112B0907440A222A
:1052200004440A16FF4413B5361B081F044BB53758
:10523000EC1A5B0C13CD351B08EB04C11A9D181A30
:0852400091041AA9041A850467
:04000005080000C12E
:00000001FF
